{
  "_format": "hh-sol-artifact-1",
  "contractName": "CommandoOrbit",
  "sourceName": "contracts/CommandoOrbit.sol",
  "abi": [
    {
      "anonymous": false,
      "inputs": [
        {
          "indexed": true,
          "internalType": "address",
          "name": "player",
          "type": "address"
        },
        {
          "indexed": false,
          "internalType": "string",
          "name": "opId",
          "type": "string"
        },
        {
          "indexed": false,
          "internalType": "uint256",
          "name": "score",
          "type": "uint256"
        },
        {
          "indexed": false,
          "internalType": "uint256",
          "name": "rank",
          "type": "uint256"
        }
      ],
      "name": "GlobalScoreBeaten",
      "type": "event"
    },
    {
      "anonymous": false,
      "inputs": [
        {
          "indexed": true,
          "internalType": "address",
          "name": "player",
          "type": "address"
        },
        {
          "indexed": false,
          "internalType": "uint256",
          "name": "score",
          "type": "uint256"
        }
      ],
      "name": "PersonalBestUpdated",
      "type": "event"
    },
    {
      "inputs": [],
      "name": "getGlobalLeaderboard",
      "outputs": [
        {
          "components": [
            {
              "internalType": "address",
              "name": "player",
              "type": "address"
            },
            {
              "internalType": "string",
              "name": "opId",
              "type": "string"
            },
            {
              "internalType": "uint256",
              "name": "score",
              "type": "uint256"
            }
          ],
          "internalType": "struct CommandoOrbit.ScoreRecord[10]",
          "name": "",
          "type": "tuple[10]"
        }
      ],
      "stateMutability": "view",
      "type": "function"
    },
    {
      "inputs": [
        {
          "internalType": "address",
          "name": "_player",
          "type": "address"
        }
      ],
      "name": "getPersonalBest",
      "outputs": [
        {
          "internalType": "uint256",
          "name": "",
          "type": "uint256"
        }
      ],
      "stateMutability": "view",
      "type": "function"
    },
    {
      "inputs": [
        {
          "internalType": "uint256",
          "name": "",
          "type": "uint256"
        }
      ],
      "name": "globalLeaderboard",
      "outputs": [
        {
          "internalType": "address",
          "name": "player",
          "type": "address"
        },
        {
          "internalType": "string",
          "name": "opId",
          "type": "string"
        },
        {
          "internalType": "uint256",
          "name": "score",
          "type": "uint256"
        }
      ],
      "stateMutability": "view",
      "type": "function"
    },
    {
      "inputs": [
        {
          "internalType": "address",
          "name": "",
          "type": "address"
        }
      ],
      "name": "personalBests",
      "outputs": [
        {
          "internalType": "uint256",
          "name": "",
          "type": "uint256"
        }
      ],
      "stateMutability": "view",
      "type": "function"
    },
    {
      "inputs": [
        {
          "internalType": "string",
          "name": "_opId",
          "type": "string"
        },
        {
          "internalType": "uint256",
          "name": "_score",
          "type": "uint256"
        }
      ],
      "name": "submitGlobalScore",
      "outputs": [],
      "stateMutability": "nonpayable",
      "type": "function"
    },
    {
      "inputs": [],
      "name": "totalPlayers",
      "outputs": [
        {
          "internalType": "uint256",
          "name": "",
          "type": "uint256"
        }
      ],
      "stateMutability": "view",
      "type": "function"
    }
  ],
  "bytecode": "0x608060405234801561001057600080fd5b506115ac806100206000396000f3fe608060405234801561001057600080fd5b50600436106100615760003560e01c80621cc1e014610066578063165402f0146100825780631d5ba17a146100b2578063330ab49a146100d05780635640a9a714610102578063f60cdcf614610132575b600080fd5b610080600480360381019061007b9190610b9d565b610150565b005b61009c60048036038101906100979190610c5b565b610810565b6040516100a99190610c97565b60405180910390f35b6100ba610859565b6040516100c79190610e66565b60405180910390f35b6100ea60048036038101906100e59190610e88565b61099d565b6040516100f993929190610f0e565b60405180910390f35b61011c60048036038101906101179190610c5b565b610a75565b6040516101299190610c97565b60405180910390f35b61013a610a8d565b6040516101479190610c97565b60405180910390f35b600083839050118015610167575060058383905011155b6101a6576040517f08c379a000000000000000000000000000000000000000000000000000000000815260040161019d90610f98565b60405180910390fd5b601e60003373ffffffffffffffffffffffffffffffffffffffff1673ffffffffffffffffffffffffffffffffffffffff1681526020019081526020016000205481111561080b576000601e60003373ffffffffffffffffffffffffffffffffffffffff1673ffffffffffffffffffffffffffffffffffffffff168152602001908152602001600020540361024d57601f600081548092919061024790610fe7565b91905055505b80601e60003373ffffffffffffffffffffffffffffffffffffffff1673ffffffffffffffffffffffffffffffffffffffff168152602001908152602001600020819055503373ffffffffffffffffffffffffffffffffffffffff167f0df9976ec69098561676782a82fdc31a7247001ba82e37a7e4bfe3f7692c40eb826040516102d79190610c97565b60405180910390a260007fffffffffffffffffffffffffffffffffffffffffffffffffffffffffffffffff905060005b600a811015610393573373ffffffffffffffffffffffffffffffffffffffff16600082600a811061033b5761033a61102f565b5b6003020160000160009054906101000a900473ffffffffffffffffffffffffffffffffffffffff1673ffffffffffffffffffffffffffffffffffffffff160361038657809150610393565b8080600101915050610307565b507fffffffffffffffffffffffffffffffffffffffffffffffffffffffffffffffff81146105635760008190505b600981101561049c5760006001826103d9919061105e565b600a81106103ea576103e961102f565b5b60030201600082600a81106104025761040161102f565b5b600302016000820160009054906101000a900473ffffffffffffffffffffffffffffffffffffffff168160000160006101000a81548173ffffffffffffffffffffffffffffffffffffffff021916908373ffffffffffffffffffffffffffffffffffffffff1602179055506001820181600101908161048191906112e3565b506002820154816002015590505080806001019150506103c1565b506040518060600160405280600073ffffffffffffffffffffffffffffffffffffffff168152602001604051806020016040528060008152508152602001600081525060006009600a81106104f4576104f361102f565b5b6003020160008201518160000160006101000a81548173ffffffffffffffffffffffffffffffffffffffff021916908373ffffffffffffffffffffffffffffffffffffffff160217905550602082015181600101908161055491906113cb565b50604082015181600201559050505b60006009600a81106105785761057761102f565b5b60030201600201548211156108095760005b600a81101561080757600081600a81106105a7576105a661102f565b5b60030201600201548311156107fa576000600990505b8181111561069d5760006001826105d4919061149d565b600a81106105e5576105e461102f565b5b60030201600082600a81106105fd576105fc61102f565b5b600302016000820160009054906101000a900473ffffffffffffffffffffffffffffffffffffffff168160000160006101000a81548173ffffffffffffffffffffffffffffffffffffffff021916908373ffffffffffffffffffffffffffffffffffffffff1602179055506001820181600101908161067c91906112e3565b50600282015481600201559050508080610695906114d1565b9150506105bd565b5060405180606001604052803373ffffffffffffffffffffffffffffffffffffffff16815260200186868080601f016020809104026020016040519081016040528093929190818152602001838380828437600081840152601f19601f82011690508083019250505050505050815260200184815250600082600a81106107275761072661102f565b5b6003020160008201518160000160006101000a81548173ffffffffffffffffffffffffffffffffffffffff021916908373ffffffffffffffffffffffffffffffffffffffff160217905550602082015181600101908161078791906113cb565b50604082015181600201559050503373ffffffffffffffffffffffffffffffffffffffff167f474dac0ba493ce0e78eaefb99a8bcf394bed3adaa4286206cd9cf26ec11c5c5b8686866001866107dd919061105e565b6040516107ed9493929190611536565b60405180910390a2610807565b808060010191505061058a565b505b505b505050565b6000601e60008373ffffffffffffffffffffffffffffffffffffffff1673ffffffffffffffffffffffffffffffffffffffff168152602001908152602001600020549050919050565b610861610a93565b6000600a80602002604051908101604052809291906000905b82821015610994578382600302016040518060600160405290816000820160009054906101000a900473ffffffffffffffffffffffffffffffffffffffff1673ffffffffffffffffffffffffffffffffffffffff1673ffffffffffffffffffffffffffffffffffffffff1681526020016001820180546108f9906110c1565b80601f0160208091040260200160405190810160405280929190818152602001828054610925906110c1565b80156109725780601f1061094757610100808354040283529160200191610972565b820191906000526020600020905b81548152906001019060200180831161095557829003601f168201915b505050505081526020016002820154815250508152602001906001019061087a565b50505050905090565b600081600a81106109ad57600080fd5b600302016000915090508060000160009054906101000a900473ffffffffffffffffffffffffffffffffffffffff16908060010180546109ec906110c1565b80601f0160208091040260200160405190810160405280929190818152602001828054610a18906110c1565b8015610a655780601f10610a3a57610100808354040283529160200191610a65565b820191906000526020600020905b815481529060010190602001808311610a4857829003601f168201915b5050505050908060020154905083565b601e6020528060005260406000206000915090505481565b601f5481565b604051806101400160405280600a905b610aab610ac1565b815260200190600190039081610aa35790505090565b6040518060600160405280600073ffffffffffffffffffffffffffffffffffffffff16815260200160608152602001600081525090565b600080fd5b600080fd5b600080fd5b600080fd5b600080fd5b60008083601f840112610b2757610b26610b02565b5b8235905067ffffffffffffffff811115610b4457610b43610b07565b5b602083019150836001820283011115610b6057610b5f610b0c565b5b9250929050565b6000819050919050565b610b7a81610b67565b8114610b8557600080fd5b50565b600081359050610b9781610b71565b92915050565b600080600060408486031215610bb657610bb5610af8565b5b600084013567ffffffffffffffff811115610bd457610bd3610afd565b5b610be086828701610b11565b93509350506020610bf386828701610b88565b9150509250925092565b600073ffffffffffffffffffffffffffffffffffffffff82169050919050565b6000610c2882610bfd565b9050919050565b610c3881610c1d565b8114610c4357600080fd5b50565b600081359050610c5581610c2f565b92915050565b600060208284031215610c7157610c70610af8565b5b6000610c7f84828501610c46565b91505092915050565b610c9181610b67565b82525050565b6000602082019050610cac6000830184610c88565b92915050565b6000600a9050919050565b600081905092915050565b6000819050919050565b610cdb81610c1d565b82525050565b600081519050919050565b600082825260208201905092915050565b60005b83811015610d1b578082015181840152602081019050610d00565b60008484015250505050565b6000601f19601f8301169050919050565b6000610d4382610ce1565b610d4d8185610cec565b9350610d5d818560208601610cfd565b610d6681610d27565b840191505092915050565b610d7a81610b67565b82525050565b6000606083016000830151610d986000860182610cd2565b5060208301518482036020860152610db08282610d38565b9150506040830151610dc56040860182610d71565b508091505092915050565b6000610ddc8383610d80565b905092915050565b6000602082019050919050565b6000610dfc82610cb2565b610e068185610cbd565b935083602082028501610e1885610cc8565b8060005b85811015610e545784840389528151610e358582610dd0565b9450610e4083610de4565b925060208a01995050600181019050610e1c565b50829750879550505050505092915050565b60006020820190508181036000830152610e808184610df1565b905092915050565b600060208284031215610e9e57610e9d610af8565b5b6000610eac84828501610b88565b91505092915050565b610ebe81610c1d565b82525050565b600082825260208201905092915050565b6000610ee082610ce1565b610eea8185610ec4565b9350610efa818560208601610cfd565b610f0381610d27565b840191505092915050565b6000606082019050610f236000830186610eb5565b8181036020830152610f358185610ed5565b9050610f446040830184610c88565b949350505050565b7f496e76616c6964204f70657261746f72204944206c656e677468000000000000600082015250565b6000610f82601a83610ec4565b9150610f8d82610f4c565b602082019050919050565b60006020820190508181036000830152610fb181610f75565b9050919050565b7f4e487b7100000000000000000000000000000000000000000000000000000000600052601160045260246000fd5b6000610ff282610b67565b91507fffffffffffffffffffffffffffffffffffffffffffffffffffffffffffffffff820361102457611023610fb8565b5b600182019050919050565b7f4e487b7100000000000000000000000000000000000000000000000000000000600052603260045260246000fd5b600061106982610b67565b915061107483610b67565b925082820190508082111561108c5761108b610fb8565b5b92915050565b7f4e487b7100000000000000000000000000000000000000000000000000000000600052602260045260246000fd5b600060028204905060018216806110d957607f821691505b6020821081036110ec576110eb611092565b5b50919050565b600081549050611101816110c1565b9050919050565b7f4e487b7100000000000000000000000000000000000000000000000000000000600052604160045260246000fd5b60008190508160005260206000209050919050565b60006020601f8301049050919050565b600082821b905092915050565b6000600883026111997fffffffffffffffffffffffffffffffffffffffffffffffffffffffffffffffff8261115c565b6111a3868361115c565b95508019841693508086168417925050509392505050565b6000819050919050565b60006111e06111db6111d684610b67565b6111bb565b610b67565b9050919050565b6000819050919050565b6111fa836111c5565b61120e611206826111e7565b848454611169565b825550505050565b600090565b611223611216565b61122e8184846111f1565b505050565b5b818110156112525761124760008261121b565b600181019050611234565b5050565b601f8211156112975761126881611137565b6112718461114c565b81016020851015611280578190505b61129461128c8561114c565b830182611233565b50505b505050565b600082821c905092915050565b60006112ba6000198460080261129c565b1980831691505092915050565b60006112d383836112a9565b9150826002028217905092915050565b8181036112f15750506113c9565b6112fa826110f2565b67ffffffffffffffff81111561131357611312611108565b5b61131d82546110c1565b611328828285611256565b6000601f8311600181146113575760008415611345578287015490505b61134f85826112c7565b8655506113c2565b601f19841661136587611137565b965061137086611137565b60005b8281101561139857848901548255600182019150600185019450602081019050611373565b868310156113b557848901546113b1601f8916826112a9565b8355505b6001600288020188555050505b5050505050505b565b6113d482610ce1565b67ffffffffffffffff8111156113ed576113ec611108565b5b6113f782546110c1565b611402828285611256565b600060209050601f8311600181146114355760008415611423578287015190505b61142d85826112c7565b865550611495565b601f19841661144386611137565b60005b8281101561146b57848901518255600182019150602085019450602081019050611446565b868310156114885784890151611484601f8916826112a9565b8355505b6001600288020188555050505b505050505050565b60006114a882610b67565b91506114b383610b67565b92508282039050818111156114cb576114ca610fb8565b5b92915050565b60006114dc82610b67565b9150600082036114ef576114ee610fb8565b5b600182039050919050565b82818337600083830152505050565b60006115158385610ec4565b93506115228385846114fa565b61152b83610d27565b840190509392505050565b60006060820190508181036000830152611551818688611509565b90506115606020830185610c88565b61156d6040830184610c88565b9594505050505056fea2646970667358221220004314e7a67ea753f34a4b416cfef9f290e218584d028bd1218a34387dcecbd264736f6c63430008180033",
  "linkReferences": {},
  "deployedLinkReferences": {}
}