{
  "_format": "hh-sol-artifact-1",
  "contractName": "CommandoOrbitSecure",
  "sourceName": "contracts/CommandoOrbitSecure.sol",
  "abi": [
    {
      "inputs": [
        {
          "internalType": "address",
          "name": "_backendSigner",
          "type": "address"
        }
      ],
      "stateMutability": "nonpayable",
      "type": "constructor"
    },
    {
      "anonymous": false,
      "inputs": [
        {
          "indexed": true,
          "internalType": "address",
          "name": "player",
          "type": "address"
        },
        {
          "indexed": false,
          "internalType": "string",
          "name": "opId",
          "type": "string"
        },
        {
          "indexed": false,
          "internalType": "uint256",
          "name": "score",
          "type": "uint256"
        }
      ],
      "name": "ScoreSubmitted",
      "type": "event"
    },
    {
      "inputs": [],
      "name": "backendSigner",
      "outputs": [
        {
          "internalType": "address",
          "name": "",
          "type": "address"
        }
      ],
      "stateMutability": "view",
      "type": "function"
    },
    {
      "inputs": [
        {
          "internalType": "address",
          "name": "_player",
          "type": "address"
        }
      ],
      "name": "getPersonalBest",
      "outputs": [
        {
          "internalType": "uint256",
          "name": "",
          "type": "uint256"
        }
      ],
      "stateMutability": "view",
      "type": "function"
    },
    {
      "inputs": [
        {
          "internalType": "address",
          "name": "",
          "type": "address"
        }
      ],
      "name": "leaderboards",
      "outputs": [
        {
          "internalType": "string",
          "name": "opId",
          "type": "string"
        },
        {
          "internalType": "uint256",
          "name": "score",
          "type": "uint256"
        }
      ],
      "stateMutability": "view",
      "type": "function"
    },
    {
      "inputs": [],
      "name": "owner",
      "outputs": [
        {
          "internalType": "address",
          "name": "",
          "type": "address"
        }
      ],
      "stateMutability": "view",
      "type": "function"
    },
    {
      "inputs": [
        {
          "internalType": "uint256",
          "name": "",
          "type": "uint256"
        }
      ],
      "name": "playerAddresses",
      "outputs": [
        {
          "internalType": "address",
          "name": "",
          "type": "address"
        }
      ],
      "stateMutability": "view",
      "type": "function"
    },
    {
      "inputs": [
        {
          "internalType": "address",
          "name": "_newSigner",
          "type": "address"
        }
      ],
      "name": "setBackendSigner",
      "outputs": [],
      "stateMutability": "nonpayable",
      "type": "function"
    },
    {
      "inputs": [
        {
          "internalType": "string",
          "name": "_opId",
          "type": "string"
        },
        {
          "internalType": "uint256",
          "name": "_score",
          "type": "uint256"
        },
        {
          "internalType": "bytes",
          "name": "_signature",
          "type": "bytes"
        }
      ],
      "name": "submitGlobalScore",
      "outputs": [],
      "stateMutability": "nonpayable",
      "type": "function"
    }
  ],
  "bytecode": "0x60806040523480156200001157600080fd5b506040516200136d3803806200136d833981810160405281019062000037919062000129565b33600160006101000a81548173ffffffffffffffffffffffffffffffffffffffff021916908373ffffffffffffffffffffffffffffffffffffffff160217905550806000806101000a81548173ffffffffffffffffffffffffffffffffffffffff021916908373ffffffffffffffffffffffffffffffffffffffff160217905550506200015b565b600080fd5b600073ffffffffffffffffffffffffffffffffffffffff82169050919050565b6000620000f182620000c4565b9050919050565b6200010381620000e4565b81146200010f57600080fd5b50565b6000815190506200012381620000f8565b92915050565b600060208284031215620001425762000141620000bf565b5b6000620001528482850162000112565b91505092915050565b611202806200016b6000396000f3fe608060405234801561001057600080fd5b506004361061007d5760003560e01c806336f956701161005b57806336f95670146100fe57806365d65e861461011a5780638da5cb5b14610138578063d0315725146101565761007d565b80630ad225761461008257806315c6aee21461009e578063165402f0146100ce575b600080fd5b61009c60048036038101906100979190610991565b610187565b005b6100b860048036038101906100b39190610a1c565b61044f565b6040516100c59190610a8a565b60405180910390f35b6100e860048036038101906100e39190610ad1565b61048e565b6040516100f59190610b0d565b60405180910390f35b61011860048036038101906101139190610ad1565b6104da565b005b6101226105ad565b60405161012f9190610a8a565b60405180910390f35b6101406105d1565b60405161014d9190610a8a565b60405180910390f35b610170600480360381019061016b9190610ad1565b6105f7565b60405161017e929190610ba7565b60405180910390f35b6000338360405160200161019c929190610c40565b6040516020818303038152906040528051906020012090506000816040516020016101c79190610cee565b60405160208183030381529060405280519060200120905060006101eb82856106a3565b905060008054906101000a900473ffffffffffffffffffffffffffffffffffffffff1673ffffffffffffffffffffffffffffffffffffffff168173ffffffffffffffffffffffffffffffffffffffff161461027b576040517f08c379a000000000000000000000000000000000000000000000000000000000815260040161027290610d86565b60405180910390fd5b6000600260003373ffffffffffffffffffffffffffffffffffffffff1673ffffffffffffffffffffffffffffffffffffffff16815260200190815260200160002060000180546102ca90610dd5565b905003610335576003339080600181540180825580915050600190039060005260206000200160009091909190916101000a81548173ffffffffffffffffffffffffffffffffffffffff021916908373ffffffffffffffffffffffffffffffffffffffff1602179055505b600260003373ffffffffffffffffffffffffffffffffffffffff1673ffffffffffffffffffffffffffffffffffffffff1681526020019081526020016000206001015485111561044757604051806040016040528087815260200186815250600260003373ffffffffffffffffffffffffffffffffffffffff1673ffffffffffffffffffffffffffffffffffffffff16815260200190815260200160002060008201518160000190816103e89190610fb2565b50602082015181600101559050503373ffffffffffffffffffffffffffffffffffffffff167fcbbb2ff2afd951c9f82548f4d1736511f74a8cdf44f70a954cc84fd2a004e6ce878760405161043e929190610ba7565b60405180910390a25b505050505050565b6003818154811061045f57600080fd5b906000526020600020016000915054906101000a900473ffffffffffffffffffffffffffffffffffffffff1681565b6000600260008373ffffffffffffffffffffffffffffffffffffffff1673ffffffffffffffffffffffffffffffffffffffff168152602001908152602001600020600101549050919050565b600160009054906101000a900473ffffffffffffffffffffffffffffffffffffffff1673ffffffffffffffffffffffffffffffffffffffff163373ffffffffffffffffffffffffffffffffffffffff161461056a576040517f08c379a0000000000000000000000000000000000000000000000000000000008152600401610561906110d0565b60405180910390fd5b806000806101000a81548173ffffffffffffffffffffffffffffffffffffffff021916908373ffffffffffffffffffffffffffffffffffffffff16021790555050565b60008054906101000a900473ffffffffffffffffffffffffffffffffffffffff1681565b600160009054906101000a900473ffffffffffffffffffffffffffffffffffffffff1681565b600260205280600052604060002060009150905080600001805461061a90610dd5565b80601f016020809104026020016040519081016040528092919081815260200182805461064690610dd5565b80156106935780601f1061066857610100808354040283529160200191610693565b820191906000526020600020905b81548152906001019060200180831161067657829003601f168201915b5050505050908060010154905082565b600060418251146106e9576040517f08c379a00000000000000000000000000000000000000000000000000000000081526004016106e09061113c565b60405180910390fd5b60008060006020850151925060408501519150606085015160001a9050600186828585604051600081526020016040526040516107299493929190611187565b6020604051602081039080840390855afa15801561074b573d6000803e3d6000fd5b50505060206040510351935050505092915050565b6000604051905090565b600080fd5b600080fd5b600080fd5b600080fd5b6000601f19601f8301169050919050565b7f4e487b7100000000000000000000000000000000000000000000000000000000600052604160045260246000fd5b6107c78261077e565b810181811067ffffffffffffffff821117156107e6576107e561078f565b5b80604052505050565b60006107f9610760565b905061080582826107be565b919050565b600067ffffffffffffffff8211156108255761082461078f565b5b61082e8261077e565b9050602081019050919050565b82818337600083830152505050565b600061085d6108588461080a565b6107ef565b90508281526020810184848401111561087957610878610779565b5b61088484828561083b565b509392505050565b600082601f8301126108a1576108a0610774565b5b81356108b184826020860161084a565b91505092915050565b6000819050919050565b6108cd816108ba565b81146108d857600080fd5b50565b6000813590506108ea816108c4565b92915050565b600067ffffffffffffffff82111561090b5761090a61078f565b5b6109148261077e565b9050602081019050919050565b600061093461092f846108f0565b6107ef565b9050828152602081018484840111156109505761094f610779565b5b61095b84828561083b565b509392505050565b600082601f83011261097857610977610774565b5b8135610988848260208601610921565b91505092915050565b6000806000606084860312156109aa576109a961076a565b5b600084013567ffffffffffffffff8111156109c8576109c761076f565b5b6109d48682870161088c565b93505060206109e5868287016108db565b925050604084013567ffffffffffffffff811115610a0657610a0561076f565b5b610a1286828701610963565b9150509250925092565b600060208284031215610a3257610a3161076a565b5b6000610a40848285016108db565b91505092915050565b600073ffffffffffffffffffffffffffffffffffffffff82169050919050565b6000610a7482610a49565b9050919050565b610a8481610a69565b82525050565b6000602082019050610a9f6000830184610a7b565b92915050565b610aae81610a69565b8114610ab957600080fd5b50565b600081359050610acb81610aa5565b92915050565b600060208284031215610ae757610ae661076a565b5b6000610af584828501610abc565b91505092915050565b610b07816108ba565b82525050565b6000602082019050610b226000830184610afe565b92915050565b600081519050919050565b600082825260208201905092915050565b60005b83811015610b62578082015181840152602081019050610b47565b60008484015250505050565b6000610b7982610b28565b610b838185610b33565b9350610b93818560208601610b44565b610b9c8161077e565b840191505092915050565b60006040820190508181036000830152610bc18185610b6e565b9050610bd06020830184610afe565b9392505050565b60008160601b9050919050565b6000610bef82610bd7565b9050919050565b6000610c0182610be4565b9050919050565b610c19610c1482610a69565b610bf6565b82525050565b6000819050919050565b610c3a610c35826108ba565b610c1f565b82525050565b6000610c4c8285610c08565b601482019150610c5c8284610c29565b6020820191508190509392505050565b600081905092915050565b7f19457468657265756d205369676e6564204d6573736167653a0a333200000000600082015250565b6000610cad601c83610c6c565b9150610cb882610c77565b601c82019050919050565b6000819050919050565b6000819050919050565b610ce8610ce382610cc3565b610ccd565b82525050565b6000610cf982610ca0565b9150610d058284610cd7565b60208201915081905092915050565b7f534543555249545920414c4552543a20496e76616c6964207369676e6174757260008201527f652066726f6d206261636b656e64204150490000000000000000000000000000602082015250565b6000610d70603283610b33565b9150610d7b82610d14565b604082019050919050565b60006020820190508181036000830152610d9f81610d63565b9050919050565b7f4e487b7100000000000000000000000000000000000000000000000000000000600052602260045260246000fd5b60006002820490506001821680610ded57607f821691505b602082108103610e0057610dff610da6565b5b50919050565b60008190508160005260206000209050919050565b60006020601f8301049050919050565b600082821b905092915050565b600060088302610e687fffffffffffffffffffffffffffffffffffffffffffffffffffffffffffffffff82610e2b565b610e728683610e2b565b95508019841693508086168417925050509392505050565b6000819050919050565b6000610eaf610eaa610ea5846108ba565b610e8a565b6108ba565b9050919050565b6000819050919050565b610ec983610e94565b610edd610ed582610eb6565b848454610e38565b825550505050565b600090565b610ef2610ee5565b610efd818484610ec0565b505050565b5b81811015610f2157610f16600082610eea565b600181019050610f03565b5050565b601f821115610f6657610f3781610e06565b610f4084610e1b565b81016020851015610f4f578190505b610f63610f5b85610e1b565b830182610f02565b50505b505050565b600082821c905092915050565b6000610f8960001984600802610f6b565b1980831691505092915050565b6000610fa28383610f78565b9150826002028217905092915050565b610fbb82610b28565b67ffffffffffffffff811115610fd457610fd361078f565b5b610fde8254610dd5565b610fe9828285610f25565b600060209050601f83116001811461101c576000841561100a578287015190505b6110148582610f96565b86555061107c565b601f19841661102a86610e06565b60005b828110156110525784890151825560018201915060208501945060208101905061102d565b8683101561106f578489015161106b601f891682610f78565b8355505b6001600288020188555050505b505050505050565b7f4f6e6c79206f776e65722063616e206368616e6765207369676e657200000000600082015250565b60006110ba601c83610b33565b91506110c582611084565b602082019050919050565b600060208201905081810360008301526110e9816110ad565b9050919050565b7f496e76616c6964207369676e6174757265206c656e6774680000000000000000600082015250565b6000611126601883610b33565b9150611131826110f0565b602082019050919050565b6000602082019050818103600083015261115581611119565b9050919050565b61116581610cc3565b82525050565b600060ff82169050919050565b6111818161116b565b82525050565b600060808201905061119c600083018761115c565b6111a96020830186611178565b6111b6604083018561115c565b6111c3606083018461115c565b9594505050505056fea26469706673582212208f5f5de4d65887f1c01a6b1fbfbaeb7edfe06c01222d3825687837dd7fe2cc4d64736f6c63430008180033",
  "linkReferences": {},
  "deployedLinkReferences": {}
}