{
  "_format": "hh3-artifact-1",
  "contractName": "CommandoOrbit",
  "sourceName": "contracts/CommandoOrbit.sol",
  "abi": [
    {
      "anonymous": false,
      "inputs": [
        {
          "indexed": true,
          "internalType": "address",
          "name": "player",
          "type": "address"
        },
        {
          "indexed": false,
          "internalType": "string",
          "name": "opId",
          "type": "string"
        },
        {
          "indexed": false,
          "internalType": "uint256",
          "name": "score",
          "type": "uint256"
        },
        {
          "indexed": false,
          "internalType": "uint256",
          "name": "rank",
          "type": "uint256"
        }
      ],
      "name": "GlobalScoreBeaten",
      "type": "event"
    },
    {
      "anonymous": false,
      "inputs": [
        {
          "indexed": true,
          "internalType": "address",
          "name": "player",
          "type": "address"
        },
        {
          "indexed": false,
          "internalType": "uint256",
          "name": "score",
          "type": "uint256"
        }
      ],
      "name": "PersonalBestUpdated",
      "type": "event"
    },
    {
      "inputs": [],
      "name": "getGlobalLeaderboard",
      "outputs": [
        {
          "components": [
            {
              "internalType": "address",
              "name": "player",
              "type": "address"
            },
            {
              "internalType": "string",
              "name": "opId",
              "type": "string"
            },
            {
              "internalType": "uint256",
              "name": "score",
              "type": "uint256"
            }
          ],
          "internalType": "struct CommandoOrbit.ScoreRecord[10]",
          "name": "",
          "type": "tuple[10]"
        }
      ],
      "stateMutability": "view",
      "type": "function"
    },
    {
      "inputs": [
        {
          "internalType": "address",
          "name": "_player",
          "type": "address"
        }
      ],
      "name": "getPersonalBest",
      "outputs": [
        {
          "internalType": "uint256",
          "name": "",
          "type": "uint256"
        }
      ],
      "stateMutability": "view",
      "type": "function"
    },
    {
      "inputs": [
        {
          "internalType": "uint256",
          "name": "",
          "type": "uint256"
        }
      ],
      "name": "globalLeaderboard",
      "outputs": [
        {
          "internalType": "address",
          "name": "player",
          "type": "address"
        },
        {
          "internalType": "string",
          "name": "opId",
          "type": "string"
        },
        {
          "internalType": "uint256",
          "name": "score",
          "type": "uint256"
        }
      ],
      "stateMutability": "view",
      "type": "function"
    },
    {
      "inputs": [
        {
          "internalType": "address",
          "name": "",
          "type": "address"
        }
      ],
      "name": "personalBests",
      "outputs": [
        {
          "internalType": "uint256",
          "name": "",
          "type": "uint256"
        }
      ],
      "stateMutability": "view",
      "type": "function"
    },
    {
      "inputs": [
        {
          "internalType": "string",
          "name": "_opId",
          "type": "string"
        },
        {
          "internalType": "uint256",
          "name": "_score",
          "type": "uint256"
        }
      ],
      "name": "submitGlobalScore",
      "outputs": [],
      "stateMutability": "nonpayable",
      "type": "function"
    },
    {
      "inputs": [],
      "name": "totalPlayers",
      "outputs": [
        {
          "internalType": "uint256",
          "name": "",
          "type": "uint256"
        }
      ],
      "stateMutability": "view",
      "type": "function"
    }
  ],
  "bytecode": "0x608060405234801561000f575f80fd5b50610a998061001d5f395ff3fe608060405234801561000f575f80fd5b506004361061005f575f3560e01c80621cc1e014610063578063165402f0146100785780631d5ba17a146100b3578063330ab49a146100c85780635640a9a7146100ea578063f60cdcf614610109575b5f80fd5b6100766100713660046105da565b610112565b005b6100a061008636600461064b565b6001600160a01b03165f908152601e602052604090205490565b6040519081526020015b60405180910390f35b6100bb6103da565b6040516100aa91906106bb565b6100db6100d6366004610734565b6104d1565b6040516100aa9392919061074b565b6100a06100f836600461064b565b601e6020525f908152604090205481565b6100a0601f5481565b8115801590610122575060058211155b6101725760405162461bcd60e51b815260206004820152601a60248201527f496e76616c6964204f70657261746f72204944206c656e677468000000000000604482015260640160405180910390fd5b335f908152601e60205260409020548111156101fe57335f908152601e602052604081205490036101b257601f8054905f6101ac83610792565b91905055505b335f818152601e602052604090819020839055517f0df9976ec69098561676782a82fdc31a7247001ba82e37a7e4bfe3f7692c40eb906101f59084815260200190565b60405180910390a25b601d548111156103d5575f5b600a8110156103d3575f81600a8110610225576102256107aa565b60030201600201548211156103cb5760095b818111156102c8575f61024b6001836107be565b600a811061025b5761025b6107aa565b600302015f82600a8110610271576102716107aa565b82546003919091029190910180546001600160a01b0319166001600160a01b039092169190911781556001808201906102ac9084018261086e565b50600291820154910155806102c081610943565b915050610237565b506040518060600160405280336001600160a01b0316815260200185858080601f0160208091040260200160405190810160405280939291908181526020018383808284375f920182905250938552505050602090910184905282600a8110610333576103336107aa565b82516003919091029190910180546001600160a01b0319166001600160a01b03909216919091178155602082015160018201906103709082610958565b5060409190910151600290910155337f474dac0ba493ce0e78eaefb99a8bcf394bed3adaa4286206cd9cf26ec11c5c5b8585856103ae866001610a12565b6040516103be9493929190610a25565b60405180910390a26103d3565b60010161020a565b505b505050565b6103e2610589565b6040805161014081019091525f600a81835b828210156104c857604080516060810190915260038302850180546001600160a01b0316825260018101805460208401919061042f906107d7565b80601f016020809104026020016040519081016040528092919081815260200182805461045b906107d7565b80156104a65780601f1061047d576101008083540402835291602001916104a6565b820191905f5260205f20905b81548152906001019060200180831161048957829003601f168201915b50505050508152602001600282015481525050815260200190600101906103f4565b50505050905090565b5f81600a81106104df575f80fd5b6003020180546001820180546001600160a01b03909216935090610502906107d7565b80601f016020809104026020016040519081016040528092919081815260200182805461052e906107d7565b80156105795780601f1061055057610100808354040283529160200191610579565b820191905f5260205f20905b81548152906001019060200180831161055c57829003601f168201915b5050505050908060020154905083565b604051806101400160405280600a905b6105c460405180606001604052805f6001600160a01b03168152602001606081526020015f81525090565b8152602001906001900390816105995790505090565b5f805f604084860312156105ec575f80fd5b833567ffffffffffffffff80821115610603575f80fd5b818601915086601f830112610616575f80fd5b813581811115610624575f80fd5b876020828501011115610635575f80fd5b6020928301989097509590910135949350505050565b5f6020828403121561065b575f80fd5b81356001600160a01b0381168114610671575f80fd5b9392505050565b5f81518084525f5b8181101561069c57602081850181015186830182015201610680565b505f602082860101526020601f19601f83011685010191505092915050565b60208082525f90610160830183820185845b600a81101561072857868403601f19018352815180516001600160a01b031685528581015160608787018190529061070782880182610678565b604093840151979093019690965250935091840191908401906001016106cd565b50919695505050505050565b5f60208284031215610744575f80fd5b5035919050565b6001600160a01b03841681526060602082018190525f9061076e90830185610678565b9050826040830152949350505050565b634e487b7160e01b5f52601160045260245ffd5b5f600182016107a3576107a361077e565b5060010190565b634e487b7160e01b5f52603260045260245ffd5b818103818111156107d1576107d161077e565b92915050565b600181811c908216806107eb57607f821691505b60208210810361080957634e487b7160e01b5f52602260045260245ffd5b50919050565b634e487b7160e01b5f52604160045260245ffd5b601f8211156103d557805f5260205f20601f840160051c810160208510156108485750805b601f840160051c820191505b81811015610867575f8155600101610854565b5050505050565b818103610879575050565b61088382546107d7565b67ffffffffffffffff81111561089b5761089b61080f565b6108af816108a984546107d7565b84610823565b5f601f8211600181146108e0575f83156108c95750848201545b5f19600385901b1c1916600184901b178455610867565b5f8581526020808220868352908220601f198616925b8381101561091657828601548255600195860195909101906020016108f6565b508583101561093357818501545f19600388901b60f8161c191681555b5050505050600190811b01905550565b5f816109515761095161077e565b505f190190565b815167ffffffffffffffff8111156109725761097261080f565b610980816108a984546107d7565b602080601f8311600181146109b3575f841561099c5750858301515b5f19600386901b1c1916600185901b178555610a0a565b5f85815260208120601f198616915b828110156109e1578886015182559484019460019091019084016109c2565b50858210156109fe57878501515f19600388901b60f8161c191681555b505060018460011b0185555b505050505050565b808201808211156107d1576107d161077e565b60608152836060820152838560808301375f608085830101525f6080601f19601f87011683010190508360208301528260408301529594505050505056fea264697066735822122071d05322b0e4f4e53c76cfd1cb6f0bc83d984d141ac30d77a8ec062a3a9671a064736f6c63430008180033",
  "linkReferences": {},
  "deployedLinkReferences": {},
  "immutableReferences": {},
  "inputSourceName": "project/contracts/CommandoOrbit.sol",
  "buildInfoId": "solc-0_8_24-daaec6fe9a376c10e9ab77db175b3a8e2e82772a"
}